:020000040800F2
:10000000B8070020C1010008BD2D0008792A0008AA
:10001000B92D0008B50A0008993500080000000055
:10002000000000000000000000000000B9300008DF
:10003000ED0B000800000000ED2D0008ED30000879
:10004000DB010008DB010008DB010008DB01000820
:10005000DB010008DB010008C90C0008DB01000817
:10006000DB010008DB010008DB010008DB01000800
:10007000DB010008DB010008DB010008DB010008F0
:10008000DB010008DB010008DB010008DB010008E0
:10009000DB010008DB010008DB010008DB010008D0
:1000A000DB010008DB010008DB010008DB010008C0
:1000B0000D3200081D32000879320008DB0100080B
:1000C000DB010008DB010008DB010008DB010008A0
:1000D000DB010008DB010008DB010008DB01000890
:1000E000DB010008DB010008DB010008DB01000880
:1000F000DB010008DB010008DB010008DB01000870
:10010000DB010008DB010008DB010008DB0100085F
:10011000DB010008DB010008DB010008DB0100084F
:10012000DB010008DB010008DB010008DB0100083F
:10013000DB010008DB010008DB010008DB0100082F
:10014000DB010008DB010008DB010008DB0100081F
:10015000DB010008DB010008DB010008DB0100080F
:10016000DB010008DB010008DB010008DB010008FF
:10017000DB010008DB010008DB01000800000000D3
:10018000DB010008DB010008DB010008DB010008DF
:10019000DB010008DB010008DB010008DB010008CF
:1001A000DB010008DB010008DB010008DFF80CD0F0
:1001B00000F068F800480047F1380008B807002050
:1001C0000648804706480047FEE7FEE7FEE7FEE7F1
:1001D000FEE7FEE7FEE7FEE7FEE7FEE78D310008FB
:1001E000AD0100082DE9F05F0546002092469B46D0
:1001F00088460646814640241BE02846414647463D
:10020000224600F02FF853465A46C01A914110D3A7
:1002100011461846224600F016F82D1A67EB010821
:100220004F4622460120002100F00DF817EB00098F
:100230004E41201EA4F10104DFDC484631462A4627
:100240004346BDE8F09F202A04DB203A00FA02F181
:10025000002070479140C2F1200320FA03F31943B4
:1002600090407047202A04DB203A21FA02F0002156
:10027000704721FA02F3D040C2F1200291400843B6
:1002800019467047064C074D06E0E06840F0010350
:1002900094E8070098471034AC42F6D3FFF78AFF82
:1002A0004C6300086C630008F0B583B040F268014D
:1002B000C2F200010C6840F24011C2F20001342287
:1002C00004FB02110646CD6D00F062F8074600F00F
:1002D00069F8034600200090204629463A460196D8
:1002E00000F0ECFD03B0F0BD80B540F26803C2F24F
:1002F00000031B68203A03EB430C40F22013C2F2C8
:10030000000303EB8C039B68B3F806C002FB0CFCF4
:100310009A881B680732D2080CFB023200F068FC96
:1003200080BD000080B540F23C10C2F200000068C1
:100330008068002818BF804780BD0000F0B581B0FC
:10034000144640F26802C2F20002126840F2401302
:10035000C2F20003342602FB06320D46D76D064674
:1003600000F016F800FB056047F8204001B0F0BD32
:1003700040F26800C2F20000006840F2201100EB79
:100380004000C2F2000101EB80008068704700006D
:1003900080B540F23C10C2F200000068806A8047DD
:1003A00080BD000080B540F23C10C2F20000006841
:1003B000C06A804780BD000070B540F2401446F628
:1003C0000000C2F20004C4F20100206009200121F3
:1003D000606140F2EC10A161C2F2000008210160EE
:1003E000C02140F2171540F24716016104211D2279
:1003F000032340F20D1C40F2431EC4E90B560025B6
:1004000081614FF40031E2612362C4F824C0C4F872
:1004100028E084F83650A586416201F0F9F9C4E974
:100420000155C4E9035500F05DF8204601F024F9B8
:1004300040F22401C2F2000140F23C100A68C2F20C
:1004400000000160904700F0DFF940F20C00C2F2BA
:10045000000000F0FFF8002070BD000070B58EB005
:1004600000260D4604460196FFF792FFCDE90206ED
:10047000FFF798FFCDE90406FF20CDE906064FF40B
:10048000C060089007200A95ADF834608DF836609A
:100490000990FFF77DFF0B90FFF784FF40F24015B6
:1004A000C2F200050C9001A92846224601F090F8FE
:1004B00040F2201104EB4400C2F2000140F20C06AD
:1004C00001EB80024FF0FF33C2F20006C2E90136B1
:1004D0004FF07F4241F82020284601F0B5F80EB0D9
:1004E00070BD000070B586B0002043F63001019069
:1004F000C4F202014A6940F2004542F080624A615A
:100500004A69C4F2020502F080620192019A0190E8
:100510000A6801AC42F400020A600A6802F40002B0
:100520000192019A01900A6842F001020A600A6889
:1005300002F001020192019A01900A6842F002025F
:100540000A600A6802F002020192019A01900A68A8
:1005500042F004020A600A6802F004020192019A61
:1005600001900A6842F008020A600A6802F0080274
:100570000192019A01900A6842F020020A600A681A
:1005800002F020020192019A01900A6842F04002B2
:100590000A60096801F040010191019941F6580192
:1005A00001910221CDE902100E2004910590A5F5DC
:1005B0008060214600F0D8FE4FF47060019028461C
:1005C000214600F0D1FE4FF49860019005F580605F
:1005D000214600F0C9FE4820019005F50060214643
:1005E00000F0C2FE4FF48060019005F58050214676
:1005F00000F0BAFE4FF40C6005F5A05601903046AD
:10060000214600F0B1FE0320019009200590284604
:10061000214600F0A9FE4FF4A0500190304621463B
:1006200000F0A2FE06B070BD40F26801C2F2000107
:100630000860704740F26801C2F20001096840F2A8
:10064000201201EB4101C2F2000202EB810148607D
:100650007047000040F26801C2F20001096840F2F0
:10066000201201EB4101C2F2000202EB810188601D
:100670007047000040F26801C2F20001096840F2D0
:10068000201201EB4101C2F2000242F82100704742
:1006900070B586B00446012810D0F4B9002001904E
:1006A00043F63000C4F20200016841F040010160ED
:1006B000006800F04000019001980EE000200190D9
:1006C00043F63000C4F20200016841F040010160CD
:1006D000006800F040000190019846F24630C0F6F4
:1006E000000030F81450012040F21406CDE9020059
:1006F0000220C2F20006049056F8240001A90195D8
:1007000000F032FE56F824002946002200F002FFD5
:1007100006B070BD80B540F21401C2F2000151F87C
:10072000202046F24631C0F6000131F81010104684
:10073000002200F0EFFE80BD80B540F21401C2F24D
:10074000000151F8202046F24631C0F6000131F890
:1007500010101046012200F0DDFE80BD80B540F291
:100760001401C2F2000151F8202046F24631C0F6D1
:10077000000131F81010104600F0C4FE80BD0000EA
:1007800080B586B0A0B1012923D0D9BB0121019148
:100790000021029140F20001C2F2000151F8200054
:1007A0000221CDE9031101A900F0DEFD06B080BDF4
:1007B0000022019243F63002C4F20202136843F0B1
:1007C00001031360126802F001020192019A0129EB
:1007D000DBD1012101910021039140F20001C2F21D
:1007E000000151F820000021C1F21101029101A97C
:1007F00000F0BAFD06200F21002200F0B7FF06200E
:1008000000F0B0FF06B080BD70B540F2903540F208
:100810001C2440F2401CC2F2000502210722C2F251
:100820000004CAF2000C042385E80E00C5E9032188
:10083000C5E90511012110204FF0400E0022C4E946
:1008400000C1C4E9040E4FF400604FF400514FF4AE
:10085000C076C4E90802A16220460021C4E902234F
:10086000C4E9066200F060F82046294601F074FBF6
:10087000B0FA80F040F26C044009C2F2000420702B
:1008800040F26A5000F004F8207880F0010070BD5A
:100890002DE9F04782B040F2D00540F21C26C2F2AA
:1008A0000005C2F20006804600274FF001094FF014
:1008B000080A304629464FF6FF720197C5E9009AAB
:1008C000C5E9029701F080FB012000F001FD022044
:1008D000C5E9000A304629464FF6FF72C5E902977E
:1008E00001F072FB03200424C5E9000A30462946C2
:1008F0004FF6FF72C5E9024701F066FB4FF40C703A
:10090000019001982946C5E9029030464FF6FF72E2
:10091000C5E9004A01F058FB3046414601F040FB72
:1009200002B0BDE8F0870000002808BF7047F0B5AE
:1009300085B00446002743F630000097C4F2020059
:10094000816840F2004641F0010181608168C4F293
:10095000020601F0010100910099009701686D46BF
:1009600041F480010160016801F480010091009967
:100970000097016841F002010160016801F0020185
:10098000009100990097016841F00401016001683D
:1009900001F00401009100990097016841F00801FD
:1009A0000160016801F00801009100990097016859
:1009B00041F010010160016801F0100100910099FF
:1009C0000097016841F020010160016801F02001F9
:1009D000009100990097016841F0400101600068B2
:1009E000294600F040000090009802200390CDE9D5
:1009F00001070C20049060200090304600F0B4FC09
:100A00000120009006F58060294600F0ADFC4CF214
:100A10000370009006F50060294600F0A5FC4FF633
:100A20008370009006F54060294600F09DFC4FF66B
:100A30003F00009006F58050294600F095FC48F2F2
:100A40003310009006F5A050294600F08DFC40F2CE
:100A50007005C2F200054FF40030C5E9080746F200
:100A60001040C4F202004FF0800C4FF4007E4FF4AF
:100A7000806285E8815005F110004FF480534FF4F7
:100A800080460321CCC02846C5E90A172F63256399
:100A9000AC6300F087FB284600F0B2FB38200F2142
:100AA000002200F063FE382000F05CFE05B0BDE8D7
:100AB000F0407047FEE70000B0B5D0E900CE049DDD
:100AC000DCF8444045EA034304F040442343BEF5C8
:100AD000403FCCF84430CCF83C201CBFCCF80C1084
:100AE000B0BD806801F47F0201F47F4303285FFA00
:100AF00081FE08D8DFE800F03002152021F07F41A8
:100B0000CCF83810B0BDF02000EA13206FF0FF03DE
:100B100003EA12324FF4704303EA114141EA1E1115
:100B200018E04FF478416FF01F0001EA122100EA4B
:100B3000531041EADE010EE06FF01F0000EA93104F
:100B40004FF4F84303EA52224FF4004303EA114101
:100B500041EADE0111440144CCF83810B0BD000078
:100B6000D0F800C06FF00F024AF6AB2352FA8CF2B5
:100B7000CAF6AA230146A2FB0330000905A31B5CA9
:100B800040F2FF302CEA00005F2A88BF0430C1E940
:100B90001603704700061016000610168269816A57
:100BA000B2F5005F06D06AB9022912D0012914D02B
:100BB000D1B90EE0032917D8DFE801F0020B020FCC
:100BC0000120704703293CBF012070471CBF002053
:100BD0007047C06AC0F300607047C06AA0F1C0707F
:100BE000B0FA80F04009704700207047704700005D
:100BF0002DE9F04F85B040F2680AC2F2000ADAF837
:100C0000003040F2201403EB4303C2F2000404EB73
:100C100083039B680392DA880D46002A11460292EC
:100C20004FD09F880646F81DC10800F0F800C01B91
:100C300057FA80F0013800220090019108E000BFCF
:100C4000049A029801320199824205F1010538D0D7
:100C50000398022902FB0100049205D0012909D161
:100C600090F8009087B9EBE70088000490FA80F9CB
:100C700057B9E5E7427801788078120242EA0141EB
:100C800001EB0009002FDBD0DDF800804FF0000BF6
:100C9000DAF8000029FA08F200EB400004EB8000CB
:100CA000D2070BEB060108BF0430026888B2A9B274
:100CB000FFF744FB0BF1010B5F45A8F10108E7D1F9
:100CC000BEE705B0BDE8F08F80B5012000F03EFB27
:100CD00080BD00000120FFF72FFD0020FFF72CFD55
:100CE000FEE700002DE9F0410B680268012B1FD1DF
:100CF000D1E9073422F4F842D1E901E7D1E90365EB
:100D0000D1E9058C496A1A4322431143426847F6E8
:100D1000FF739A4342EA0E023A4332432A4342EABD
:100D2000080242EA0C02016042600020BDE8F08146
:100D300047F6FF7322EA030CD1E90132D1E903E45B
:100D400043EA0C0301F114081A4398E8E00142EA6F
:100D50000E0222432A433243496A3A4342EA0802D6
:100D6000114301600020BDE8F081000002464069A7
:100D700040EA41010020516170470000F0B581B0A8
:100D800000250095144691E88C00C9681A436FF05D
:100D90001F0303EB47131A4342EA412100910099D4
:100DA0000646016100F0BCFBB169890612D5074611
:100DB000651C02E0B069800609D5002DFAD044B167
:100DC00000F0AEFBC01BA042F4D9032502E00025D1
:100DD00000E00325284601B0F0BD00002DE9F041F8
:100DE0008368012A37D140F6FF72CFF60F721A409E
:100DF000CB684FF20006CFF6FF764F6906EB033360
:100E00000026CFF6F07606EB07571A43C36842EA8E
:100E1000070CD1E900768D686FF00F0203F0704384
:100E200002EB06126FF0FF06013F0C6906EB052688
:100E300000253B43CFF6FF7589691A4305EB04454E
:100E4000324301392A4342EA0161C0F808C0C16057
:100E50000020BDE8F08103F0704CD1E90032D1E907
:100E600002E401F110084FF20001013B6FF00F079F
:100E7000CFF6FF7198E8600107EB02126FF0FF07F1
:100E800001EB0431002443EA0C0307EB0E27CFF6F5
:100E9000FF741A4304EB054500243A43CFF6F0747F
:100EA000114304EB06562943A8F10104314341EAFA
:100EB000046181600020BDE8F08100002DE9F0416F
:100EC00082B00E460746089940F2E0004BF200045B
:100ED00098461546C2F200004FF440320023C4F297
:100EE0000204C0E90042C0E9023100F075F810B117
:100EF00002B0BDE8F08140F2E000C2F200003946E5
:100F000000F01AF80028F3D1099940F2E000C2F28B
:100F1000000032462B46CDF8008000F025F900286D
:100F2000E6D140F2E000C2F200000A2100F082F8AF
:100F300002B0BDE8F081000070B590F83820012AB9
:100F40004FF0020245D0012380F8383080F8392074
:100F500000EB0112D2E9073E546A43EA0E45A3F1C1
:100F6000090E2606BEF1020F38BF04F07F46036863
:100F700002F1180C002945EA060112D0DC694FF68F
:100F8000F075C0F2FC052C402143D961DCF800105B
:100F9000BEF1010F196116D8516A21F07F41196223
:100FA00011E05C6A4FF6F075C0F2FC052C4021435D
:100FB0005962DCF80010BEF1010F996103D8516A43
:100FC00021F07F4199620121002280F8391080F8D8
:100FD0003820104670BD0000002804BF0120704773
:100FE00010B5044690F8390028B9002084F838007C
:100FF000204600F01DF8022084F8390094E807101C
:10100000036823F4403319430160416B21F0070169
:1010100011434163016C43F6FF72914341EA0C01B5
:10102000016400200121E06384F8391010BD000044
:1010300070470000F0B581B00446002000902068A1
:101040000D460068C00734D000F06AFA21684A688B
:1010500092072ED4064648680090009810F0210FA1
:1010600012D00098800603D5E06B40F00200E063E8
:101070000098C00703D0E06B40F00100E06321203E
:101080008860012004215AE06F1C00BF37B100F0D6
:1010900047FA002D5AD0801BA84257D821684868CB
:1010A000800706D448680090009810F0210FEDD01A
:1010B000D7E72068C169406A084380063AD500F046
:1010C0002FFA21684A68D20634D406464868009050
:1010D000009810F0290F19D00098000703D5E06B95
:1010E00040F00400E0630098800603D5E06B40F018
:1010F0000200E0630098C00703D0E06B40F00100FD
:10110000E063292088600120042118E06F1C00BFE3
:101110002FB100F005FA05B3801BA8421DD8216845
:101120004868C00606D448680090009810F0290F5F
:10113000EED0D1E72068122181600020012184F8DF
:101140003910002184F8381001B0F0BDE06B0321A4
:1011500040F02000E0630320F1E7E06B032140F062
:101160002000E0630320EAE7B0B582B0054690F8BE
:10117000380001284FF0020011D0DDF818C001241A
:1011800085F8384085F839002846CDF800C0FFF7CB
:1011900093FC2868016841F001010160002002B061
:1011A000B0BD0000B0B540B3054690F83500022848
:1011B00004BF0220B0BD28680024016821F00101AD
:1011C00001602121046044608460C4600461416165
:1011D0002846FFF7C5FCE96D3F2202FA01F1C5E997
:1011E0000F44C5E91144C5E91344816020466C658C
:1011F00085F8354085F83440B0BD0120B0BD000011
:101200002DE9F041044600F08BF9C4B105460020F9
:1012100084F83400022084F835002068016821F049
:101220000101016026683068C0070BD000F078F932
:10123000401B0528F6D903212022032042E001208B
:10124000BDE8F081306848F23F01CFF21001251D62
:1012500000EA010C2ECDD4E9050E41EA0C01114340
:1012600019432943D4E90778084340EA0E01606A2C
:101270003943042841EA080103D1D4E90B2311437F
:10128000194331607169042821F0070141EA000522
:101290000CD1D4E90A1045EA010538B12046FFF720
:1012A0007DFC18B10121402201200BE02046756130
:1012B000FFF756FCE16D3F2202FA01F18160002246
:1012C00001210020626584F83510BDE8F08100003E
:1012D000B0B5044600F024F9054640F25C00C2F2C5
:1012E00000000078611C18BF044400BF00F018F92A
:1012F000401BA042FAD3B0BD012818BF704710B5FB
:1013000001200124FFF718FA0020FFF703FA40F24A
:10131000E810C2F20000046040F2AC30C2F20000FB
:10132000017824EA0101017040F22C31C2F200017F
:10133000098800780130B1FBF0F040F23031C2F2A0
:10134000000109684863BDE81040704780B543F666
:101350001441C4F201010A68024208BF80BD08605E
:10136000FFF7CAFF80BD00002DE9F04F83B000F108
:101370003E4202F1FF7243F6004E4FEAB22242F2C1
:101380000047C4F2010E0192C4F202070A224FF094
:10139000010B00254FF000084FF00009B84208BFCC
:1013A000092200920AE000BF09F1010908F10408CE
:1013B000B9F1100F05F1020500F0A0800F680BFADB
:1013C00009F417EA040CEFD0D1F804A0BAF1120F17
:1013D00015D80BFA0AF717F0061F10D087680322FA
:1013E000CE68AA4027EA0202AE40324382604268D9
:1013F000A243CAF3001404FA09F422434260C2680B
:1014000003238C6803FA05FB22EA0B02AC4022435B
:101410004AF01004122CC2600FD16FF0030202EAEE
:101420005902024408F01C060F23146A03FA06F757
:101430000B69BC43B3402343136203684C686FEAF3
:101440000B021A4004F00303AB401A43E3004FF0D1
:10145000010B0260A8D5002243F644030292C4F2B5
:1014600002031A684FF6084A42F480421A601A686A
:10147000CFF6FF7A02F480420292029A29F0030228
:10148000724452F80A3008F00C040F26A640019F5F
:10149000B343009E092F38BF3E4606FA04F42343A7
:1014A00042F80A30DEF800204B6842EA0C04DE0302
:1014B00058BF22EA0C04CEF80040DEF804209E0358
:1014C00042EA0C0458BF22EA0C04CEF80440DEF8CD
:1014D0000820DE0242EA0C0458BF22EA0C04CEF8CF
:1014E000084043F60C44C4F2010422689B0242EA1D
:1014F0000C0358BF22EA0C03236055E703B0BDE894
:10150000F08F000042690A408A4208BF09048161E5
:1015100070470000002A08BF09048161704700007D
:1015200040F2B030C2F200000068704740F25C0048
:1015300040F2B031C2F20000C2F2000100780A6845
:10154000104408607047000080B543F60040C4F2C4
:101550000200016841F400710160016841F480619A
:101560000160016841F480710160032000F00EF910
:101570000F2000F005F800F0F3F8002080BD000017
:10158000B0B540F25C02C2F2000240F220011278D3
:10159000C2F200014FF47A730968B3FBF2F2044619
:1015A000B1FBF2F1084601F08BF80F2C4FF001056A
:1015B0000CD858B94FF0FF3021460022002500F02A
:1015C000D5F840F26000C2F2000004602846B0BDC9
:1015D0002DE9F041044690F8A00001284FF00200E8
:1015E00008BFBDE8F0814FF0010884F8A08084F8BE
:1015F000A100342002FB0040D1E900CED1E902670E
:10160000D1E90453C0E91067C0E91253C0E90ECE16
:10161000D1E906CED1E90865D1E90A73C0E91665BA
:10162000C0E91873C0E914CE0B6B8366204601F045
:1016300027FB2068C0F82480002084F8A18084F86B
:10164000A000BDE8F081000090F8A01001294FF043
:1016500002010FD080F8A11046F61801C4F2010172
:101660000A6842F480320A60012180F8A11000214A
:1016700080F8A01008467047002804BF012070477A
:1016800010B5044690F8A10028B9002084F8A00005
:10169000204600F063F8022084F8A100D4E9000C91
:1016A000D4E90223816921F07041816142EA0C0191
:1016B00022691943836911431943816181684FF697
:1016C000000CCFF2000C01EA0C018160D4E9051393
:1016D000826843EA014111438160C16801EA0C015B
:1016E000C160D4E90712C36842EA01411943C160ED
:1016F000016901EA0C010161D4E90912036942EAB6
:10170000014119430161416901EA0C014161D4E9D8
:101710000B12436942EA01411943416194F83510C3
:1017200094F83620C36A120403F07F43C36242EA8E
:10173000012194F83420C36A11441943C162416BFA
:1017400041F006014163816941F00101816100209E
:101750000121C4F8A40084F8A11010BD7047000056
:101760007047000080B501F019FF80BD70B51446C8
:101770000D46064601F022FF2946224601F020FBD5
:101780000146304601F022FF70BD000080B501F037
:101790002FFF80BD70B582B00020019043F640005D
:1017A000C4F202000168402641F0805101600068E7
:1017B000C4F20E2600F080500190019847F2040513
:1017C0000120C4F200053060FFF7AAFE044600BF06
:1017D0002868C00306D4FFF7A3FE001BB0F57A7F8C
:1017E000F6D90EE001207060FFF79AFE044600BFB4
:1017F0002868800308D4FFF793FE001BB0F57A7FBA
:10180000F6D9032002B070BD002002B070BD000008
:10181000F0B581B00446007843F6700610F0430F2F
:10182000C4F2020634D06827C4F24727002038608B
:10183000FFF776FE054600BF56F8700C000105D58F
:10184000FFF76EFE401B0228F6D993E02068C1071F
:1018500040F09380810700F19980400608D5E16847
:10186000D4E90102090641EA801040EA0270706181
:1018700001203860FFF754FE054600BF56F8700C93
:10188000000105D4FFF74CFE401B0228F6D971E099
:10189000207810F00C0F49D06827C4F247270020A9
:1018A000B860FFF73DFE054656F8700C800005D580
:1018B000FFF736FE401B0228F6D95BE0206841079F
:1018C00013D5B169D4E9042301F0E04141EA821162
:1018D00041EA0361256AB161F1696FF0FF0221F409
:1018E000F85102EB05221143F16100070FD5B069F1
:1018F000216900F07060A26940EA811040EA02703C
:10190000636AB061F06920F440301843F06101204F
:10191000B860FFF705FE054656F8700C800005D448
:10192000FFF7FEFD401B0228F6D923E02078800651
:1019300070D50020009056F8300C47F2000740F0B8
:10194000805046F8300C56F8300CC4F2000700F016
:10195000805000900098386840F480703860FFF73D
:10196000DFFD05463868C00525D4FFF7D9FD401BCB
:101970000228F7D9032001B0F0BDD4E901210907FD
:1019800041EA8211716181077FF567AF7169626811
:1019900001F0E041E36841EA821141EA0361E5694F
:1019A0007161F1696A1E21F01F011143F161400666
:1019B0003FF555AF5CE7306810F4407013D0A16A72
:1019C00001F4407188420ED0306840F64061C4F2A4
:1019D0004721012220F440700A6000220A60306032
:1019E0003068C00727D1A06A56F8681C4FF6FF433D
:1019F00000F4407221F4F811C0F6FF730340B2F511
:101A0000407F08BF194346F8681C31686FF31F30E8
:101A1000084330602078C00602D4002001B0F0BD39
:101A200094F82C0040F64061C4F24721C1F8A003AD
:101A3000002001B0F0BDFFF773FD054641F2883785
:101A400030688007CFD4FFF76BFD401BB8424FF0E2
:101A50000300F5D9EDE700002DE9F041002800F082
:101A60008B8043F60808C4F202080446D8F8F8034D
:101A70000D4600F00F00884207D288F8F853D8F8D6
:101A8000F80300F00F00A84276D12068810717D52F
:101A9000410705D5D8F8001041F4E051C8F800100E
:101AA000010705D5D8F8001041F46041C8F80010CE
:101AB000D8F80010A26821F0F0011143C8F8001016
:101AC000C0073FD1D8F8F80300F00F00A84207D9AB
:101AD00088F8F853D8F8F80300F00F00A8424BD16B
:101AE0002068410707D5D8F80010E26821F4E051DA
:101AF0001143C8F80010000708D5D8F80000216984
:101B000020F4604040EAC100C8F8000000F054F83A
:101B1000D8F8001043F6A612C1F30311C0F6000274
:101B2000515C40F2200220FA01F140F26000C2F262
:101B300000000068C2F200021160FFF721FD0020E2
:101B4000BDE8F0816068811E022907D258F8081CA0
:101B500089015CBF0120BDE8F08110E0012807D1B8
:101B600058F8081C89035CBF0120BDE8F08106E03D
:101B700058F8081C890702D40120BDE8F081D8F884
:101B8000001021F003010843C8F80000FFF7C8FC6B
:101B9000064641F2883700BFD8F80000616800F0BF
:101BA0000C00B0EB810F8DD0FFF7BAFC801BB84260
:101BB000F2D90320BDE8F08110B543F60404C4F265
:101BC0000204606800F00C0142F200400829C0F2F3
:101BD000F40007D0042918BF10BD41F20020C0F264
:101BE0007A0010BD216801F03F0221682368490294
:101BF000C3F3881105D4A1FB00010023FEF7F2FA1C
:101C000006E041F20020C0F27A004843B0FBF2F057
:101C100021680222C1F3014102EB4101B0FBF1F066
:101C200010BD00002DE9F04182B0002800F098803E
:101C30000446007843F60006C007C4F2020643D00B
:101C4000B06800F00C00042805D1306880033BD553
:101C50006068C8BB84E0B06800F00C00082802D1BE
:101C600070684002F1D46568B5F5A02F0AD0B5F5CB
:101C7000803F0BD0306820F480303060306820F432
:101C8000802006E0306840F480203060306840F406
:101C900080303060FFF744FC002D054611D000BFB6
:101CA0003068800310D4FFF73BFC401B6428F7D951
:101CB00018E100BFFFF734FC401B64284FF003001D
:101CC0004BD830688003F5D42078800719D5B068E8
:101CD00010F00C0F08D0B06800F00C00082840F09D
:101CE0008080706840027CD43068800702D5E0684C
:101CF000012835D13068216920F0F80040EAC100A0
:101D00003060207800072FD42078400743D4A5699D
:101D100015B3B06800F00C00082840F09580012D44
:101D20001ED07068E16900F480028A4218D1216AED
:101D300000F03F028A4213D147F6C071626A014047
:101D400091420DD1A16A00F440328A4208D1E16A81
:101D500000F07060884203D1002002B0BDE8F0813D
:101D6000012002B0BDE8F0816069002840F2000067
:101D7000C4F2472057D00121C0F8801EFFF7D0FBE6
:101D8000054600BF706F8007BED4FFF7C9FB401B3C
:101D90000228F7D9A6E0306C10F080580AD1002054
:101DA0000190306C40F080503064306C00F0805016
:101DB0000190019847F20007C4F200073868C00597
:101DC00024D4386840F480703860FFF7A9FB0546DA
:101DD0003868C0051AD4FFF7A3FB401B0228F7D9C7
:101DE00080E0E068002851D00020C4F247200121A3
:101DF0000160FFF795FB0546306880073FF57AAF35
:101E0000FFF78EFB401B0228F6D96BE0A568052D75
:101E100050D0012D52D0306F20F001003067306F6C
:101E200020F004004DE00021C0F8801EFFF778FB91
:101E3000054600BF706F80077FF566AFFFF770FB48
:101E4000401B0228F6D94DE00027C4F247270020A6
:101E50003866FFF765FB022D05460BD1306880011F
:101E600058D5FFF75DFB401B02284FF00300F5D962
:101E700073E700BF306880017FF56EAFFFF750FB5E
:101E8000401B02284FF00300F4D966E70020C4F29B
:101E9000472000210160FFF743FB054630688007BB
:101EA0007FF52FAFFFF73CFB401B02284FF00300EC
:101EB000F4D952E7306F40F004003067306F40F0E3
:101EC00001003067FFF72CFB002D054641F28837F3
:101ED00014D000BF306F800713D4FFF721FB401BE5
:101EE000B842F7D9032002B0BDE8F081FFF718FB34
:101EF000401BB8424FF003003FF62FAF306F800712
:101F0000F4D4B8F1000F7FF402AF306C20F08050B1
:101F10003064FCE604F11C052FCD08430021CFF608
:101F2000FF7140EA821001EBC3316FF30F0140EA09
:101F300005600843706001203866FFF7F1FA044637
:101F4000306880013FF508AFFFF7EAFA001B02286E
:101F50004FF00300F4D900E7002804BF01207047C8
:101F6000B0B5044690F82C000D4628B9002084F83E
:101F70002D00204600F012F8022084F82C00206882
:101F8000211DFEF7AFFED4E900022946FEF726FF29
:101F9000012084F82C000020B0BD00007047000034
:101FA00010B5044690F82C0002284FF0020008BF3C
:101FB00010BD84F82C002068FEF7D8FE012084F8BC
:101FC0002C00002010BD0000B0B5044690F82C0095
:101FD00002284FF0020008BFB0BD84F82C00206832
:101FE0000D46FEF7CBFE2868012102284FF00000C5
:101FF00008BF052184F82C10B0BD0000002804BFE4
:102000000120704710B50446022084F85100206872
:10201000016821F040010160204600F04FF80020E7
:10202000606584F8510084F8500010BD90F85100AC
:1020300070470000002804BF0120704710B5044617
:1020400090F8510028B9002084F85000204600F094
:1020500037F8022084F8510094E807101143036810
:1020600041EA0C0123F04003036022691143D4E9E3
:10207000052341EA020C03F40072E16942EA0C0212
:1020800042EA010C226AA16A42EA0C020A43026097
:102090004FF0040C626A0CEA13431A434260B1F534
:1020A000005F04BFE16A0161C16921F40061C1619F
:1020B00000200121606584F8511010BD70470000B8
:1020C000704700002DE9F04381B0044640681D468A
:1020D0001746B0F5827F0E4602D1A06800286FD067
:1020E00094F85000012803D1022001B0BDE8F0832C
:1020F0004FF0010984F85090FFF712FA94F851104C
:10210000012954D18046002E4FF0010018BF002F46
:102110004ED0042084F8510000206065A663A78794
:10212000E7872063A086E086A16A2064B1F5005F9E
:1021300060640BD12068016821F4005101600168DE
:1021400041F400510160E08F0138E087A068B0F5EC
:10215000004F04D12068016821F4804101602068AB
:102160000168490603D4016841F040010160E1685B
:10217000E08F91B300284CD06E1C0AE0C068A16BC0
:1021800021F8020BA163E08F0138E087E08F00287F
:102190003FD020688168C907F0D1FFF7C1F9002E50
:1021A000F4D0A0EB0800A842F0D3032000E0022006
:1021B000002184F8519084F8501001B0BDE8F083FC
:1021C000042084F851002046314632463B460095B3
:1021D00000F03AF901B0BDE8F083D0B16E1C0AE01E
:1021E000007BA16B0870A06B0130A063E08F013809
:1021F000E087E08F68B120688168C907F0D1FFF7F8
:102200008FF9002EF5D0A0EB0800A842F1D30320EF
:10221000CEE7A06AB0F5005F2CD1206801220168EA
:102220002B4641F48051016020460121CDF8008009
:1022300000F05CFE08B10320BAE7E1682068B1F560
:10224000006F03D1C068A16B088002E0007BA16B26
:1022500008702046012101222B46CDF8008000F0B5
:1022600045FE28B1606D40F00200606503209FE7E5
:102270002068C06820462946424600F0B9FD002883
:102280001CBF2020606520688168C90606D5616D85
:1022900041F0020161654FF6EF718160606D0028C9
:1022A00018BF012084E700002DE9F04381B0044607
:1022B00090F85000012803D1022001B0BDE8F0835E
:1022C0004FF001091D4616460F4684F85090FFF75F
:1022D00027F994F85110012965D18046002F4FF05D
:1022E000010018BF002E00F0A680032084F85100E2
:1022F000002060652763A686E686A063A087E08746
:10230000A168C4E91000B1F5004F04D1206801684C
:1023100041F480410160A06AB0F5005F08D12068F7
:10232000016821F400510160016841F4005101602D
:1023300020680168490603D4016841F0400101604A
:102340006168731EE268B1FA81F1B3FA83F3490957
:102350005B09B2F5006F41EA030126D139B1216B67
:102360000988C160B81C2063E08E0138E086E08EE9
:10237000002840D06E1C09E0216B31F8022BC260AE
:102380002163E08E0138E086E08EA0B3206881688A
:102390008907F1D4FFF7C4F8002EF5D0A0EB0800B0
:1023A000A842F1D325E0022045E039B13978017324
:1023B000206B01302063E08E0138E086E08ED0B1E2
:1023C0006E1C0AE0216B09780173206B01302063D9
:1023D000E08E0138E086E08E68B120688168890768
:1023E000F0D4FFF79DF8002EF5D0A0EB0800A8422E
:1023F000F1D303201FE0A06AB0F5005F04D120688C
:10240000016841F48051016020462946424600F0AF
:1024100037FD00281CBF20206065A06838B9002067
:1024200000902068C1680091806800900098606DFD
:10243000002818BF0120002184F8519084F8501022
:1024400001B0BDE8F08300002DE9F04782B00446FA
:1024500090F85000012801D10225F3E001201E462A
:1024600017468A4684F85000FFF75AF894F851103E
:102470008146012940F08880BAF1000F4FF0010534
:1024800018BF002F00F0D880002E00F0D58094F8FF
:10249000510004281CBF052084F85100002060650D
:1024A000A763E687A687C4F830A0E686A16AA68659
:1024B000B1F5005F2064606408D12068016821F4F0
:1024C00000510160016841F4005101602068016819
:1024D000490603D4016841F0400101606168731E40
:1024E000E268B1FA81F1B3FA83F3DDF82880490993
:1024F0005B09B2F5006F41EA030154D141B1216B90
:102500000988C1600AF102002063E08E0138E0868C
:10251000012608F1010500BFE08E18B9E08F002800
:1025200000F0948020688168890716D5E18E012E1D
:1025300013D191B1216B31F8022BC2602163E18E7E
:102540000139E186E18E39B9A16AB1F5005F03D1A5
:10255000016841F48051016000268168C9070AD0F2
:10256000E18F41B1C068A16B012621F8020BA16384
:10257000E08F0138E087FEF7D3FF002DCCD0A0EB31
:1025800009004045C8D356E06068B0F5827F08D1A5
:1025900004294FF002054FD1A06800283FF46CAF2A
:1025A0004AE0022548E041B19AF800100173206B1F
:1025B00001302063E08E0138E086012608F1010534
:1025C000E08E10B9E08F002840D02068816889072C
:1025D00019D5E18E012E16D1A9B1216B09780173AD
:1025E000206B01302063E08E0138E086E08E48B930
:1025F000A06AB0F5005F05D12068016841F4805100
:10260000016000BF002620688168C9070BD0E18FF8
:1026100049B1C068A16B01260870A06B0130A063AE
:10262000E08F0138E087FEF77BFF002DC8D0A0EBDC
:1026300009004045C4D30325012084F8510000203F
:1026400084F85000284602B0BDE8F087A06AB0F5D3
:10265000005F10D12046012101224346CDF80090B1
:1026600000F044FC28B1606D032540F00200606575
:10267000E2E72068C06820688168C90601D40025A7
:1026800007E0616D012541F0020161654FF6EF71D0
:102690008160204641464A4600F0F2FB18B12020F6
:1026A00060650125C8E7A0680028C5D10020019019
:1026B0002068C1680191806801900198BCE7000022
:1026C00080B500F0FBFC80BD704700007047000043
:1026D000002804BF0120704710B5044690F83D0063
:1026E00028B9002084F83C00204600F00DF80220B4
:1026F00084F83D002068211D00F0E6FD012084F8EB
:102700003D00002010BD0000B0B582B0002443F6AB
:1027100040050194C4F202052868002140F002003F
:1027200028602868022200F00200019001981D2014
:10273000FFF71CF81D20FFF715F80094286800210A
:1027400040F0010028602868012200F0010000909C
:1027500000981C20FFF70AF81C20FFF703F802B0CE
:10276000B0BD00000068C16841F00101C16081682E
:1027700001F00701062903D0016841F00101016061
:10278000002070477047000010B5044600680169DA
:10279000890744BFC1685FEA817138D42068016944
:1027A000490744BFC1685FEA41713CD420680169B0
:1027B000090744BFC1685FEA017141D4206801691B
:1027C000C90644BFC1685FEAC16145D42068016998
:1027D000C9071CBFC1685FEAC1714AD1206801699D
:1027E000090644BFC1685FEA016149D420680169F4
:1027F000490644BFC1685FEA416148D42068016965
:10280000890644BFC1685FEA816147D410BD6FF09B
:1028100002010161012121778069800745D02046AE
:10282000FFF7B0FF47E06FF004010161022121775B
:10283000806910F4407F41D02046FFF7A3FF43E0BA
:102840006FF00801016104212177C06980073ED043
:102850002046FFF797FF40E06FF01001016108216B
:102860002177C06910F4407F3AD02046FFF78AFFF5
:102870003CE06FF001010161204600F0E7F8ADE7B0
:102880006FF0800101612046FFF71EFFAEE76FF099
:1028900040010161204600F0EDF8AFE76FF0200144
:1028A00001612046FFF712FF10BD204600F04EF8F0
:1028B000204600F0C9F8002020776FE7204600F09E
:1028C00045F8204600F0C0F8002020776EE720464B
:1028D00000F03CF8204600F0B7F8002020776DE7C4
:1028E000204600F033F8204600F0AEF800202077B4
:1028F0006CE70000B0B5044690F83C0001284FF0AA
:10290000020008BFB0BD4FEAB2020125032A84F8D5
:102910003C5084F83D0012D8DFE802F002060A0EAF
:10292000206800F075FD0AE0206800F0A3FD06E0D5
:10293000206800F0D5FD02E0206800F005FE0020D0
:1029400084F83D5084F83C00B0BD000010B504464A
:102950000068B0F1804F02D10120FDF7FFFE206832
:10296000B0F1804F02D10020FDF7F8FE2068002171
:10297000416210BD002804BF0120704710B5044615
:1029800090F83D0028B9002084F83C00204600F073
:102990000DF8022084F83D002068211D00F094FC11
:1029A000012084F83D00002010BD000080B582B0F9
:1029B0000020019043F64000C4F2020001680322A7
:1029C00041F0040101600068002100F00400019062
:1029D00001981E20FEF7CAFE1E20FEF7C3FE02B0BD
:1029E00080BD000010B54FEAB102032A044606D8A4
:1029F000236811A050F82200DA681043D8602068DC
:102A0000012200F0F3FC206840F2004240F48061B3
:102A1000C4F20102914203D1416C41F4004141648E
:102A2000816801F00701062903D0016841F0010126
:102A30000160002010BD00BF020000000400000083
:102A400008000000100000007047000080B500681A
:102A5000B0F1804F02D10120FDF780FE40F2E81076
:102A6000C2F200000068002808BF80BD0020FDF70A
:102A700075FE80BD70470000FEE7000080B5FEF7E0
:102A800027FC80BD2DE9F04381B0137853B30C4689
:102A90000546561E4FF001084FF00009FDF768FC8F
:102AA000808800FB04F7FDF763FCC08816F8012F4F
:102AB00000FB05F1B8B289B2FDF716FC013418FA33
:102AC00084F7FDF755FC80884743FDF761FC87429A
:102AD0004FF0000028BF0120717828BF4C46002924
:102AE0000544DBD101B0BDE8F08300002DE9F047DB
:102AF00086B040F23810C2F20000017800295AD1A5
:102B00004FF00108002743F6300580F80080019758
:102B1000C4F20205286840F6000440F0080028606E
:102B20002868C4F2020400F00800019001984FF4F4
:102B3000005004F580660DF10409CDE901084FF05D
:102B4000020A304649460397CDF810A0FEF70CFC68
:102B500000972868494640F008002860286800F07F
:102B60000800009000984FF48050CDE901083046ED
:102B7000CDE9037AFEF7F8FB00972868494640F054
:102B800004002860286800F00400009000980420E9
:102B9000CDE901082046CDE9037AFEF7E5FB2046A2
:102BA00004210022FEF7B6FC204604210122FEF794
:102BB000B1FC00F0FBF906B0BDE8F087F0B581B0DC
:102BC00040F60004C4F202040D46064620460421E5
:102BD0000022FEF79FFC04F5806738464FF4005151
:102BE0000022FEF797FC304600F04EFA284600F02F
:102BF00035FA054638464FF400510122FEF78AFCAB
:102C0000204604210122FEF785FC284601B0F0BDD4
:102C1000B0B540F60005C4F20205044605F5806033
:102C20004FF400510122FEF775FC284604210022D2
:102C3000FEF770FC204600F027FA28460421012206
:102C4000FEF768FCB0BD0000B0B540F60005C4F268
:102C50000205044605F580604FF400510022FEF79E
:102C600059FC284604210022FEF754FC204600F0BF
:102C70000BFA284604210122FEF74CFCB0BD0000EF
:102C8000F0B50468D1E900CE04EBC2108B68CD68C2
:102C9000E668D0F88820002702F47042C0F8882047
:102CA000E268C0F6FF77C2F30B423E40624406EB97
:102CB0000E4601323243C0F88820E268D0F88C60BA
:102CC0006FF3DF2206F47046C0F88C60E4682A4493
:102CD0006FF3DF242344013343EA0242C0F88C201F
:102CE000D0F8942022F00702C0F894200B69C0F8B5
:102CF000943091F8322091F831408D69D0F89C6081
:102D000000261204C0F89C6091F8307042EA042258
:102D100042EA05623A44C0F89C20D0F8982040F27C
:102D2000077422F0FF02C0F898204A69072BC0F808
:102D30009820D0F8A020AEEB0C0722EA0402C0F8DD
:102D4000A020D1E9074500F1840244EA0504C0F857
:102D5000A040D0F8AC40C0F8AC604C6AC0F8AC40C1
:102D60009ABF0DA050F823000120D36A03F0E0239E
:102D7000D362D1E90A3143437843033040EA034048
:102D8000D062106B40F2FF739843106311631068B8
:102D900040F001001060F0BD0400000003000000DE
:102DA000020000000200000002000000010000001C
:102DB0000100000002000000FEE700007047000074
:102DC00000F0070080F00703042B28BF04234FF016
:102DD000FF3C03380CFA03F338BF002099438140CD
:102DE0000CFA00F022EA0000084370477047000028
:102DF000B0B582B0044640680B46B0F5827F20D162
:102E0000A168B1F5004F02D0B1F5806F04D12168FF
:102E10000D6825F040050D60B0F5827F11D1A068E6
:102E2000B0F5806F1DD100922046012100220025BF
:102E300000F05CF890B1606D032540F02000606503
:102E40000CE00092204601210022002500F04EF8FF
:102E500020B1606D032540F020006065284602B077
:102E6000B0BD0092204680210022002500F03EF8EF
:102E70000028F3D0606D032540F020006065EDE789
:102E8000B0B582B040F22003C2F200031B6849F6DD
:102E90008175C1F25E65A3FB05350446680D4FF4EC
:102EA0007A73584301906068B0F5827F0ED10B466B
:102EB0000092204680210022002500F017F888B1FA
:102EC000606D032540F0200060650BE0019840B183
:102ED000019801380190206880680006F6D400252A
:102EE00000E00025284602B0B0BD00002DE9F04307
:102EF00081B08146006880680840401AB0FA80F0CE
:102F00004009904203D1002001B0BDE8F083DDF814
:102F1000208015460E461F465C1C09E0D9F80000CB
:102F200080683040801BB0FA80F04009A842EAD0A7
:102F3000002CF3D0FEF7F4FAA0EB0800B842EDD372
:102F4000D9E900014268B1F5827F22F0E0024260D7
:102F50000BD1D9F80810B1F5004F02D0B1F5806F50
:102F600003D1016821F040010160D9F82810B1F5C2
:102F7000005F07D1016821F400510160016841F44C
:102F800000510160012089F85100002089F85000AB
:102F9000032001B0BDE8F08380B540F25020C2F2BA
:102FA0000000FFF72BF800F001F880BD10B540F2EB
:102FB0005024C2F200042046FFF738F8002818BF5A
:102FC00010BD45F2000000220723C4F201004FF0BB
:102FD000180C4FF40071C4E90A234FF48273C4E95A
:102FE0000822C4E90003C4E90222C4E90422C4E9B6
:102FF000061C00F005F82046FFF71CF810BD000085
:1030000080B586B0002043F630010190C4F2020181
:103010004A6942F480124A614A6902F480120192BC
:10302000019A0190086840F020000860086801A932
:1030300000F02000019001984FF460700190022090
:10304000CDE90200012004900520059041F20040E6
:10305000C4F20200FEF788F906B080BD80B582B0E8
:1030600040F21C01C2F200010B68024640F25020FF
:10307000C2F2000001A9FFF725F8002818BFFFF7EA
:103080008BFF019802B080BD80B582B040F21C0178
:10309000C2F200010B68ADF8060040F25020C2F207
:1030A00000000DF106010122FFF7FEF8002818BF0D
:1030B000FFF772FF02B080BD70470000B0B5013865
:1030C0000024B4EB106F1CBF0120B0BD4EF2100500
:1030D000CEF2000568604FF0FF300F2100F076FA65
:1030E0000720AC6028602046B0BD000080B5FEF728
:1030F0001DFA80BDB0B592B0002443F640000194A3
:10310000C4F202000168022541F0805101600068AC
:1031100000F080500190019847F200000194C4F241
:103120000000016841F440410160006800F4404043
:1031300001900198012001904FF4803002904FF4EB
:1031400080000890082009904FF4B470CDE90A057A
:1031500007200C9001A80795FEF764FD98B9FEF7CB
:1031600019FB0F20CDE90D054FF4A05010904FF43E
:10317000805011900DA805210F94FEF76DFC0028DA
:1031800004BF12B0B0BDFDF7A5FD00004EF688509B
:10319000CEF20000016841F4700101604FF000615F
:1031A00040F8801C7047000080B540F22000C2F259
:1031B0000000006841F25971CDF2B711A0FB010186
:1031C0004FF0FF3000EB913140F2E820C2F20000F6
:1031D000018040F2A820C2F200004FF0804242F28B
:1031E0000F7C89B20023C0E90021C0E9023C0361E1
:1031F000FFF76EFA40B940F2A820C2F20000FFF7D4
:10320000B1FA002808BF80BDFDF764FD80B540F22B
:10321000A820C2F20000FFF7B7FA80BD80B540F2E7
:10322000EC20C2F20000FFF7AFFA80BD40F22000B0
:10323000C2F20000006841F25971CDF2B711A0FB53
:1032400001014FF0FF3000EB913040F28C31C2F2BF
:103250000001088040F2303140F60002C2F2000165
:10326000C4F2000249F6404C80B20023C1E90020BC
:10327000C1E9023C0B61704780B540F23030C2F2C8
:103280000000FFF781FA80BDB0B540F22C31C2F2E8
:10329000000140F27034098840F23035C2F2000477
:1032A0000020C2F20005C4E90001A0602846FFF733
:1032B00061FB284621460022FFF71CFB284600211F
:1032C000FFF790FBB0BD000010B540F6FF3E03686D
:1032D000C4F2000E40F2004C7045C4F2010C0FDC49
:1032E000B0F1804F19D040F20042C4F20002904287
:1032F00013D040F60002C4F2000290420DD010E05C
:1033000040F60042C4F20002904206D0604504D06C
:103310000022C4F20102904203D14A6823F07003F4
:10332000134341F6FF72C4F2000290420DDC704577
:103330001FDCB0F1804F41D040F20042C4F20002E5
:1033400090423BD040F6000221E043F6FF72C4F207
:103350000102904220DC42F20002C4F200029042DC
:103360002CD00022C4F20102904227D0604525D023
:1033700028E040F60042C4F2000290421ED041F61E
:103380000002C4F20002904218D041F60042C4F29A
:103390000002904212D015E044F20002C4F2010291
:1033A00090420BD044F60002C4F20102904205D0D4
:1033B00044F20042C4F20102904203D1CA6823F4ED
:1033C0004073134323F080024B69D1F800E08C680E
:1033D0001A430260C46240F48062C0F828E062458B
:1033E00004BF096901630121416110BD80B501F08D
:1033F0001F014FF0010CD0F820E00CFA01F32EEA87
:1034000003030362036A02FA01F11943016280BDFA
:10341000B0B5026A40F2004522F001020262026A7F
:10342000D0F804E0D0F818C08C6822F0020240F412
:103430008063C4F20105AB4242EA040205D1CC68C4
:1034400022F00C0224F0040422430C68AB4207D1A2
:10345000D1E905532EF4407E45EA0E0545EA030EF8
:103460002CF073032343C0F804E08361496841638F
:103470000262B0BD70B5026A40F2004422F0100250
:103480000262026AD0F804E0D0F818C08D6822F019
:10349000200240F48063C4F20104A34242EA051210
:1034A00007D1CD686FF0400622F0C00206EA05158C
:1034B0002A430D68A34207D1D1E905642EF4406385
:1034C00043EA860343EA840E2CF4E64343EA0523E9
:1034D000C0F804E0836149688163026270BD000046
:1034E00070B5026A40F2004422F480720262026AFD
:1034F000D0F804E0D0F81CC08D6822F4007240F4CB
:103500008063C4F20104A34242EA052207D1CD68D8
:1035100040F2FF462D0222F44062B5432A430D6873
:10352000A34207D1D1E905642EF4405343EA0613C0
:1035300043EA041E2CF073032B43C0F804E0C3617C
:103540004968C163026270BD70B5026A40F200460C
:1035500022F480520262026A4368D0F81CE00C68D0
:10356000D1F808C040F48065C4F20106B54204D128
:103570004D6923F4804343EA85132EF4E64646EA78
:1035800004264360C66122F40052496842EA0C32C4
:103590000164026270BD0000FEE70000002848BF21
:1035A000704700F01F01012202FA01F14EF20012F1
:1035B0004009CEF2000242F8201070474EF60C503F
:1035C000CEF200000068C0F3022070474EF614539C
:1035D00000F00F02CEF2000309011A4400F160432B
:1035E000B0F1FF3FC8BF03F564421170704700009F
:1035F0004EF60C51CEF200010A684FF6FF031A4056
:1036000060F30A2242F0806040F0FD70086070476D
:1036100080B5282000F068F980BD000080B5292021
:1036200000F062F980BD00004FF4A0707047000008
:10363000F020704780B5FFF759FACA2000F054F91E
:10364000C32000F04DF9082000F04AF9502000F0A6
:1036500047F9CF2000F048F9002000F041F9C120DF
:1036600000F03EF9302000F03BF9ED2000F03CF98D
:10367000642000F035F9032000F032F9122000F048
:103680002FF9812000F02CF9E82000F02DF9852099
:1036900000F026F9002000F023F9782000F020F94E
:1036A000CB2000F021F9392000F01AF92C2000F08D
:1036B00017F9002000F014F9342000F011F902206D
:1036C00000F00EF9F72000F00FF9202000F008F9C3
:1036D000EA2000F009F9002000F002F9002000F0D3
:1036E000FFF8B12000F000F9002000F0F9F81B20ED
:1036F00000F0F6F8B62000F0F7F80A2000F0F0F835
:10370000A22000F0EDF8C02000F0EEF8102000F04C
:10371000E7F8C12000F0E8F8102000F0E1F8C5203B
:1037200000F0E2F8452000F0DBF8152000F0D8F8B2
:10373000C72000F0D9F8902000F0D2F8362000F031
:10374000D3F8C82000F0CCF8F22000F0CDF800202B
:1037500000F0C6F8B02000F0C7F8C22000F0C0F8B2
:10376000B62000F0C1F80A2000F0BAF8A72000F057
:10377000B7F8272000F0B4F8042000F0B1F82A20B0
:1037800000F0B2F8002000F0ABF8002000F0A8F83C
:10379000002000F0A5F8EF2000F0A2F82B2000F0A8
:1037A000A3F8002000F09CF8002000F099F8012018
:1037B00000F096F83F2000F093F8F62000F094F81F
:1037C000012000F08DF8002000F08AF8062000F0BB
:1037D00087F82C2000F088F8C820FFF74FF9262042
:1037E00000F082F8012000F07BF8E02000F07CF887
:1037F0000F2000F075F8292000F072F8242000F066
:103800006FF80C2000F06CF80E2000F069F8092029
:1038100000F066F84E2000F063F8782000F060F8C1
:103820003C2000F05DF8092000F05AF8132000F069
:1038300057F8052000F054F8172000F051F8112037
:1038400000F04EF8002000F04BF8E12000F04CF8BA
:10385000002000F045F8162000F042F81B2000F090
:103860003FF8042000F03CF8112000F039F8072060
:1038700000F036F8312000F033F8332000F030F853
:10388000422000F02DF8052000F02AF80C2000F06E
:1038900027F80A2000F024F8282000F021F82F2033
:1038A00000F01EF80F2000F01BF8112000F01CF8AB
:1038B000C820FFF7E3F8292000F016F82C2000F0CC
:1038C00013F880BD80B5FFF779F980BD80B5FFF7AB
:1038D0000DF9D3200321FFF7F5FF80B280BD000072
:1038E00080B5FFF795F980BD80B5FFF7ADF980BDD4
:1038F000FDF72AFEFFF7FEFBFCF75EFD00204FF010
:103900005041FCF7ABFD0020FCF78EFE6FF47F000A
:10391000FCF7CAFCFCF706FD40F20400C2F200000E
:10392000FCF798FE0020CFF6FF70FCF7A3FE4DF2E7
:10393000D330CFF6D370FCF77DFE10A20220012118
:10394000FFF7A0F800200121FCF71AFF0020FCF788
:103950009FFE0120FCF79CFE0120FCF7EDFEFFF727
:1039600023FCFFF763FC40F22C30C2F2000044F667
:1039700020610180FFF788FCFEE700BF4D543354FF
:103980004134204C6162310002E008C8121F08C1B6
:10399000002AFAD170477047002001E001C1121FD0
:1039A000002AFBD170470000000000000000010267
:1039B00003040607080900000000000000000000E2
:1039C00000000000000000000000000000000000F7
:1039D00000000000000000000000000000000000E7
:1039E00007000700070007000700070007000200A4
:1039F00002000000000007000700000000000000B7
:103A0000000000000000000000001CE01CE01CE0C2
:103A100008400840084000000000000000000000CE
:103A200000000000000000000000000000000CC0CA
:103A30000CC00CC00CC00CC03FF03FF00CC00CC060
:103A40003FF03FF00CC00CC00CC00CC00CC000001C
:103A50000000000000000300030007E00FE0186012
:103A600018001F000FC000E0186018601FC01F8002
:103A7000030003000300000000000000000000003D
:103A80001C002200220022001C6001E00F803C008C
:103A900031C002200220022001C00000000000000E
:103AA00000000000000000000000000003E00FE044
:103AB0000C000C0006000F301FF019E018C01FF0BA
:103AC00007B000000000000000000000000000003F
:103AD000000003800380038001000100010000005A
:103AE00000000000000000000000000000000000D6
:103AF000000000000000000000C000C00180018044
:103B000001800300030003000300030003000180A1
:103B10000180018000C000C0000000000000000023
:103B20000C000C0006000600060003000300030062
:103B30000300030003000600060006000C000C0052
:103B400000000000000000000300030003001B60F1
:103B50001FE0078007800FC00CC0000000000000BD
:103B60000000000000000000000000000000000055
:103B70000000000003000300030003003FF03FF0DB
:103B80000300030003000300000000000000000029
:103B90000000000000000000000000000000000025
:103BA000000000000000000000000000038003008F
:103BB00003000600060004000000000000000000F2
:103BC0000000000000000000000000003FE03FE0B7
:103BD00000000000000000000000000000000000E5
:103BE00000000000000000000000000000000000D5
:103BF00000000000000000000000000003800380BF
:103C000003800000000000000000000000000060D1
:103C1000006000C000C000C00180018003000300FC
:103C2000060006000C000C000C0018001800000034
:103C300000000000000000000F801FC018C03060AE
:103C400030603060306030603060306018C01FC05D
:103C50000F800000000000000000000000000000D5
:103C600003001F001F000300030003000300030004
:103C70000300030003001FE01FE00000000000003D
:103C800000000000000000000F801FC038E030601E
:103C9000006000C00180030006000C0018003FE037
:103CA0003FE00000000000000000000000000000F5
:103CB0000F803FC030E0006000E007C007C000E0B8
:103CC0000060006060E07FC03F80000000000000F6
:103CD000000000000000000001C003C003C006C0D7
:103CE0000CC00CC018C030C03FE03FE000C003E093
:103CF00003E00000000000000000000000000000E1
:103D00001FC01FC0180018001F801FC018E00060EF
:103D10000060006030E03FC01F8000000000000035
:103D2000000000000000000003E00FE01E0018008B
:103D3000380037803FC038E03060306018E01FC086
:103D400007800000000000000000000000000000EC
:103D50003FE03FE03060006000C000C000C0018074
:103D60000180018003000300030000000000000048
:103D700000000000000000000F801FC038E030602D
:103D800038E01FC01FC038E03060306038E01FC02E
:103D90000F80000000000000000000000000000094
:103DA0000F001FC038C03060306038E01FE00F6087
:103DB00000E000C003C03F803E00000000000000A3
:103DC00000000000000000000000000000000000F3
:103DD0000380038003800000000000000380038054
:103DE0000380000000000000000000000000000050
:103DF000000000000000000001C001C001C0000080
:103E0000000000000380030006000600040000001C
:103E1000000000000000000000000000003000F082
:103E200003C007001C0078001C00070003C000F05E
:103E30000030000000000000000000000000000052
:103E400000000000000000007FF07FF00000000094
:103E50007FF07FF000000000000000000000000084
:103E600000000000000000000000000030003C00E6
:103E70000F00038000E0007800E003800F003C00AA
:103E80003000000000000000000000000000000002
:103E900000000F801FC018601860006001C0038020
:103EA0000300000000000700070000000000000001
:103EB000000000000000000003800C80084010405B
:103EC000104011C012401240124011C010000800F2
:103ED0000840078000000000000000000000000013
:103EE00000001F801F80038006C006C00CC00C604D
:103EF0001FE01FE030307878787800000000000084
:103F0000000000000000000000003F803FC018607B
:103F1000186018E01FC01FE01870183018303FF00C
:103F20003FE0000000000000000000000000000072
:103F3000000007B00FF01C70383030003000300047
:103F4000300038301C700FE007C000000000000097
:103F5000000000000000000000007F807FC030E013
:103F600030703030303030303030307030E07FC042
:103F70007F80000000000000000000000000000042
:103F800000003FF03FF01830183019801F801F806C
:103F90001980183018303FF03FF00000000000009A
:103FA000000000000000000000003FF03FF018306B
:103FB000183019801F801F801980180018003F00DA
:103FC0003F000000000000000000000000000000B2
:103FD000000007B01FF0187030303000300031F8AA
:103FE00031F8303018301FF007C00000000000002A
:103FF000000000000000000000003CF03CF01860F1
:10400000186018601FE01FE01860186018603CF02E
:104010003CF0000000000000000000000000000074
:1040200000001FE01FE00300030003000300030083
:104030000300030003001FE01FE000000000000079
:104040000000000000000000000003F803F800601A
:1040500000600060006030603060306030E03FC081
:104060000F800000000000000000000000000000C1
:1040700000003EF83EF818E019801B001F001D806C
:1040800018C018C018603E783E38000000000000DC
:10409000000000000000000000003F003F000C0096
:1040A0000C000C000C000C000C300C300C303FF0FD
:1040B0003FF00000000000000000000000000000D1
:1040C00000007878787838703CF034B037B037B08A
:1040D0003330333030307CF87CF8000000000000D2
:1040E0000000000000000000000039F03DF01C60FE
:1040F0001E601E601B601B6019E019E018E03EE0C6
:104100003E60000000000000000000000000000011
:10411000000007800FC01CE0387030303030303085
:10412000303038701CE00FC0078000000000000035
:10413000000000000000000000003FC03FE01870D9
:104140001830183018701FE01FC0180018003F000A
:104150003F00000000000000000000000000000020
:10416000000007800FC01CE0387030303030303035
:10417000303038701CE00FC0078007B00FF00CE043
:10418000000000000000000000003FC03FE0187089
:10419000183018701FE01FC018E0186018703E3803
:1041A0003E180000000000000000000000000000B9
:1041B00000000FB01FF03870303038001F8007E06B
:1041C0000070303038703FE037C000000000000061
:1041D000000000000000000000003FF03FF033301E
:1041E00033303330030003000300030003000FC02B
:1041F0000FC00000000000000000000000000000F0
:1042000000003CF03CF018601860186018601860FE
:10421000186018601CE00FC007800000000000005C
:104220000000000000000000000078F078F030602E
:10423000306018C018C00D800D800D800700070089
:104240000700000000000000000000000000000067
:1042500000007C7C7C7C301833983398339836D8B7
:1042600016D01C701C701C7018300000000000007C
:104270000000000000000000000078F078F03060DE
:1042800018C00D80070007000D8018C0306078F05E
:1042900078F00000000000000000000000000000B6
:1042A00000003CF03CF018600CC007800780030061
:1042B0000300030003000FC00FC000000000000057
:1042C000000000000000000000001FE01FE0186078
:1042D00018C001800300030006000C6018601FE096
:1042E0001FE00000000000000000000000000000CF
:1042F00003C003C003000300030003000300030026
:1043000003000300030003000300030003C003C015
:10431000000000000000180018000C000C000C0049
:1043200006000600030003000180018000C000C0F9
:1043300000C00060006000000000000000000000FD
:104340000F000F000300030003000300030003003D
:104350000300030003000300030003000F000F002D
:104360000000000000000000020007000D8018C0DF
:10437000306020200000000000000000000000006D
:10438000000000000000000000000000000000002D
:10439000000000000000000000000000000000001D
:1043A000000000000000000000000000000000000D
:1043B0000000FFFCFFFC0000040003000080000080
:1043C00000000000000000000000000000000000ED
:1043D00000000000000000000000000000000000DD
:1043E00000000000000000000FC01FE000600FE0B0
:1043F0001FE0386030E03FF01F7000000000000058
:10440000000000000000000070007000300030006C
:1044100037803FE0386030303030303038607FE017
:104420007780000000000000000000000000000095
:10443000000000000000000007B01FF0183030300E
:104440003000300038301FF00FC0000000000000C6
:10445000000000000000000000700070003000301C
:1044600007B01FF0187030303030303038701FF81F
:1044700007B800000000000000000000000000007D
:10448000000000000000000007801FE018603FF0FF
:104490003FF0300018301FF007C00000000000009F
:1044A000000000000000000003F007F00600060016
:1044B0001FE01FE0060006000600060006001FE0E1
:1044C0001FE00000000000000000000000000000ED
:1044D000000000000000000007B81FF8187030301E
:1044E0003030303018701FF007B0003000700FE02F
:1044F0000FC000000000000038003800180018004D
:104500001BC01FE01C6018601860186018603CF049
:104510003CF000000000000000000000000000006F
:1045200003000300000000001F001F000300030041
:104530000300030003001FE01FE000000000000074
:104540000000000000000000030003000000000065
:104550001FC01FC000C000C000C000C000C000C01D
:1045600000C000C001C03F803F000000000000000C
:1045700038003800180018001BE01BE01B001E006C
:104580001E001B00198039F039F000000000000007
:1045900000000000000000001F001F0003000300D7
:1045A00003000300030003000300030003001FE0F7
:1045B0001FE00000000000000000000000000000FC
:1045C00000000000000000007EE07FF03330333058
:1045D0003330333033307BB87BB80000000000004C
:1045E00000000000000000000000000000000000CB
:1045F0003BC03FE01C6018601860186018603CF019
:104600003CF000000000000000000000000000007E
:10461000000000000000000007801FE0186030303C
:104620003030303018601FE00780000000000000CC
:10463000000000000000000000000000000000007A
:1046400077807FE0386030303030303038603FE0A5
:104650003780300030007C007C000000000000004B
:10466000000000000000000007B81FF8187030308C
:104670003030303018701FF007B00030003000F8D4
:1046800000F8000000000000000000000000000032
:104690003CE03DF00F300E000C000C000C003FC061
:1046A0003FC000000000000000000000000000000B
:1046B000000000000000000007E01FE018601E007E
:1046C0000FC001E018601FE01F8000000000000024
:1046D000000000000000000000000C000C000C00B6
:1046E0003FE03FE00C000C000C000C000C300FF021
:1046F00007C00000000000000000000000000000F3
:10470000000000000000000038E038E01860186089
:104710001860186018E01FF00F7000000000000023
:104720000000000000000000000000000000000089
:1047300078F078F0306018C018C00D800D80070048
:104740000700000000000000000000000000000062
:10475000000000000000000078F078F03260326065
:1047600037E01DC01DC018C018C0000000000000C8
:104770000000000000000000000000000000000039
:104780003CF03CF00CC00780030007800CC03CF0FC
:104790003CF00000000000000000000000000000ED
:1047A000000000000000000078F078F0306018C0D1
:1047B00018C00D800F800700060006000C007F0067
:1047C0007F0000000000000000000000000000006A
:1047D0001FE01FE018C00180030006000C601FE00E
:1047E0001FE00000000000000000000000000000CA
:1047F00001C003C00300030003000300030007001F
:104800000E000700030003000300030003C001C003
:10481000000000000000000003000300030003008C
:104820000300030003000300030003000300030070
:10483000030003000300030000000000000000006C
:104840001C001E0006000600060006000600070009
:104850000380070006000600060006001E001C007C
:104860000000000000000000000000000000000048
:1048700000000E003F3033F001E0000000000000B7
:104880000000000000000000000000000000000028
:104890000000000000000000000000000000000018
:1048A0000000000000000000000000000000000008
:1048B00000000000000000000000000000000000F8
:1048C00000000000000000000000000000000000E8
:1048D0000000000000000000000000000380000352
:1048E00080000380000380000380000380000380B9
:1048F00000038000038000010000010000000000B0
:1049000000000003800003800000000000000000A1
:104910000000000000000000000000000000000097
:10492000000000000000000E70000E70000E70000D
:1049300004200004200004200004200000000000E7
:104940000000000000000000000000000000000067
:104950000000000000000000000000000000000057
:1049600000000000000000000000000006600006DB
:1049700060000660000660000660003FF8003FF837
:10498000000660000CC0003FF8003FF8000CC000BB
:104990000CC0000CC0000CC0000CC00000000000E7
:1049A0000000000000000000000000000000000007
:1049B0000001800001800007B0000FF000187000B7
:1049C0001870001C00000F800007E00000F00018C5
:1049D00030001C30001C70001FE0001BC000018074
:1049E0000001800001800001800000000000000044
:1049F0000000000000000000000000000780000F21
:104A0000C0001CE0001860001860001CE0000FF8F7
:104A10000007E0001FF00007380006180006180025
:104A200007380003F00001E0000000000000000073
:104A30000000000000000000000000000000000076
:104A40000000000000000000000003F00007F0007C
:104A50000C60000C00000C00000600000700000FB6
:104A60009C001DFC0018F0001870000FFC0007DC13
:104A70000000000000000000000000000000000036
:104A80000000000000000000000000000000000323
:104A9000800003800003800001000001000001008D
:104AA0000001000000000000000000000000000005
:104AB00000000000000000000000000000000000F6
:104AC00000000000000000000000000000000000E6
:104AD0000000000000180000380000700000F00026
:104AE00000E00000E00001C00001C00001C00001C2
:104AF000C00001C00001C00000E00000E000007044
:104B000000007000003800001800000000000000E5
:104B10000000000000000000000000001800001C61
:104B200000000E00000E00000700000700000380D8
:104B300000038000038000038000038000038000E6
:104B40000700000700000F00000E00001C00001806
:104B50000000000000000000000000000000000055
:104B6000000000000180000180000180001DB800ED
:104B70001FF80007E00003C00003C0000660000645
:104B800060000000000000000000000000000000C5
:104B90000000000000000000000000000000000015
:104BA0000000000000000000000000000000000005
:104BB0000000018000018000018000018000018070
:104BC000003FFC003FFC00018000018000018000EC
:104BD00001800001800000000000000000000000D3
:104BE00000000000000000000000000000000000C5
:104BF00000000000000000000000000000000000B5
:104C000000000000000000000000000000000000A4
:104C1000000000000000000000E00000C00001C033
:104C2000000180000180000300000300000000007C
:104C30000000000000000000000000000000000074
:104C40000000000000000000000000000000000064
:104C5000001FF8001FF80000000000000000000026
:104C60000000000000000000000000000000000044
:104C70000000000000000000000000000000000034
:104C80000000000000000000000000000000000024
:104C90000000000000000000000000000000000014
:104CA000000000000000000003C00003C00003C0BB
:104CB00000000000000000000000000000000000F4
:104CC000000000000000001800001800003800007C
:104CD000300000700000600000600000C00000C0F4
:104CE00000018000018000030000030000060000B6
:104CF0000600000E00000C00001C00001800001848
:104D000000000000000000000000000000000000A3
:104D10000000000003C00007E0000C30000C300071
:104D2000181800181800181800181800181800187B
:104D300018001818000C30000C300007E00003C009
:104D40000000000000000000000000000000000063
:104D500000000000000000000000000000800007CC
:104D600080001F80001D8000018000018000018004
:104D700000018000018000018000018000018000AE
:104D80000180001FF8001FF8000000000000000074
:104D90000000000000000000000000000000000013
:104DA0000000000007C0001FF0003830003018007D
:104DB00030180000180000300000600001C000033F
:104DC00080000600000C00001800003FF8003FF8CB
:104DD00000000000000000000000000000000000D3
:104DE00000000000000000000000000003C0000FF1
:104DF000E0000C700000300000300000600003C0D4
:104E00000003E00000700000180000180000180007
:104E10001838001FF0000FC0000000000000000064
:104E20000000000000000000000000000000000082
:104E30000000000000E00001E00001E0000360006D
:104E40000660000660000C60000C60001860003016
:104E500060003FF8003FF80000600003F80003F82E
:104E60000000000000000000000000000000000042
:104E70000000000000000000000000001FF0001F04
:104E8000F0001800001800001800001BC0001FF000
:104E9000001C300000180000180000180000180066
:104EA0003030003FF0000FC00000000000000000A4
:104EB00000000000000000000000000000000000F2
:104EC0000000000000F80003F8000700000E0000DA
:104ED0000C00001800001BC0001FF0001C30001860
:104EE00018001818001818000C38000FF00003E024
:104EF00000000000000000000000000000000000B2
:104F00000000000000000000000000001FF8001F6B
:104F1000F800181800183800003000003000007049
:104F20000000600000600000E00000C00000C00061
:104F300001C00001800001800000000000000000AE
:104F40000000000000000000000000000000000061
:104F50000000000007E0000FF0001C3800181800E7
:104F60001818000C300007E00007E0000C300018B3
:104F700018001818001818001C38000FF00007E07F
:104F80000000000000000000000000000000000021
:104F900000000000000000000000000007C0000F3B
:104FA000F0001C30001818001818001818000C38F1
:104FB000000FF80003D80000180000300000700057
:104FC00000E0001FC0001F00000000000000000003
:104FD00000000000000000000000000000000000D1
:104FE00000000000000000000000000000000000C1
:104FF00003C00003C00003C0000000000000000068
:10500000000000000000000003C00003C00003C057
:105010000000000000000000000000000000000090
:105020000000000000000000000000000000000080
:10503000000000000000000000F00000F00000F0A0
:105040000000000000000000000000000000E00080
:1050500001C0000180000180000300000200000088
:105060000000000000000000000000000000000040
:1050700000000000000000000000001C00003C00D8
:1050800000F00003C0000F00003C0000F000003CF6
:1050900000000F000003C00000F000003C00001CF6
:1050A0000000000000000000000000000000000000
:1050B00000000000000000000000000000000000F0
:1050C00000000000000000000000007FFC007FFCEA
:1050D000000000000000007FFC007FFC00000000DA
:1050E00000000000000000000000000000000000C0
:1050F00000000000000000000000000000000000B0
:1051000000000000000000000000700000780000B7
:105110001E000007800001E000007800001E000073
:10512000780001E0000780001E0000780000700099
:10513000000000000000000000000000000000006F
:105140000000000000000000000000000000000758
:10515000C0000FE000187000183000183000007018
:105160000000E00003C00003800003000000000016
:105170000000000700000700000000000000000021
:10518000000000000000000000000000000000001F
:105190000000000003E00007F0000E38000C1800CB
:1051A00018780018F80019D80019980019980019F3
:1051B000980018F8001878001800000C00000E186D
:1051C0000007F80003E000000000000000000000FD
:1051D0000000000000000000000000000000001FB0
:1051E00080001FC00001C0000360000360000630A3
:1051F000000630000C30000FF8001FF800180C00FB
:10520000300C00FC7F00FC7F00000000000000006C
:10521000000000000000000000000000000000008E
:10522000000000000000007FE0007FF00018380060
:105230001818001818001838001FF0001FF8001880
:105240001C00180C00180C00180C007FF8007FF0F0
:10525000000000000000000000000000000000004E
:10526000000000000000000000000000000000033B
:10527000EC000FFC001C1C00180C00300C0030006F
:1052800000300000300000300000300000180C003A
:105290001C1C000FF80003F00000000000000000DC
:1052A00000000000000000000000000000000000FE
:1052B000000000000000007FC0007FF000183800F0
:1052C000181800180C00180C00180C00180C001806
:1052D0000C00180C001818001838007FF0007FE050
:1052E00000000000000000000000000000000000BE
:1052F0000000000000000000000000000000007F2F
:10530000F8007FF800181800181800199800198084
:10531000001F80001F8000198000199800181800D5
:105320001818007FF8007FF800000000000000005F
:10533000000000000000000000000000000000006D
:10534000000000000000003FFC003FFC000C0C00CF
:105350000C0C000CCC000CC0000FC0000FC0000CE7
:10536000C0000CC0000C00000C00003FC0003FC09B
:10537000000000000000000000000000000000002D
:10538000000000000000000000000000000000031A
:10539000EC000FFC001C1C00180C00300C0030004E
:1053A0000030000030FE0030FE00300C00380C00F1
:1053B0001C1C000FFC0003F00000000000000000B7
:1053C00000000000000000000000000000000000DD
:1053D000000000000000007E7E007E7E00181800A5
:1053E0001818001818001818001FF8001FF80018E7
:1053F00018001818001818001818007E7E007E7E0D
:10540000000000000000000000000000000000009C
:105410000000000000000000000000000000001F6D
:10542000F8001FF800018000018000018000018069
:1054300000018000018000018000018000018000E7
:105440000180001FF8001FF80000000000000000AD
:10545000000000000000000000000000000000004C
:105460000000000000000007FE0007FE0000300002
:1054700000300000300000300000300030300030DC
:1054800030003030003030003060003FE0000F80EE
:10549000000000000000000000000000000000000C
:1054A0000000000000000000000000000000007F7D
:1054B0003E007F3E0018300018600018C0001980C0
:1054C000001B80001FC0001CE00018700018300096
:1054D0001838007F1F007F1F000000000000000040
:1054E00000000000000000000000000000000000BC
:1054F000000000000000007F80007F80000C0000A2
:105500000C00000C00000C00000C00000C00000C53
:105510000C000C0C000C0C000C0C007FFC007FFC41
:10552000000000000000000000000000000000007B
:10553000000000000000000000000000000000F07B
:105540000F00F81F00381C003C3C003C3C00366C4F
:1055500000366C0033CC0033CC00318C00300C00B2
:10556000300C00FE7F00FE7F000000000000000005
:10557000000000000000000000000000000000002B
:105580000000000000000078FE0078FE001C1800FB
:105590001E18001F18001B18001B980019D80018AF
:1055A000D80018F8001878001838007F18007F1805
:1055B00000000000000000000000000000000000EB
:1055C00000000000000000000000000000000003D8
:1055D000C0000FF0001C3800181800381C00300CF8
:1055E00000300C00300C00300C00381C0018180083
:1055F0001C38000FF00003C0000000000000000095
:10560000000000000000000000000000000000009A
:10561000000000000000003FF0003FF8000C1C00FC
:105620000C0C000C0C000C0C000C18000FF8000FF8
:10563000E0000C00000C00000C00003FC0003FC068
:10564000000000000000000000000000000000005A
:105650000000000000000000000000000000000347
:10566000C0000FF0001C3800181800381C00300C67
:1056700000300C00300C00300C00381C00181800F2
:105680001C38000FF00007C00007CC000FFC000C16
:1056900038000000000000000000000000000000D2
:1056A000000000000000007FE0007FF000183800DC
:1056B0001818001818001838001FF0001FC0001834
:1056C000E0001870001830001838007F1E007F0EB0
:1056D00000000000000000000000000000000000CA
:1056E00000000000000000000000000000000007B3
:1056F000D8000FF8001C38001818001818001E00F9
:10570000000FC00003F000007800181800181800FF
:105710001C38001FF0001BE000000000000000002B
:105720000000000000000000000000000000000079
:10573000000000000000003FFC003FFC00318C0036
:10574000318C00318C00318C00018000018000011F
:1057500080000180000180000180000FF0000FF048
:105760000000000000000000000000000000000039
:105770000000000000000000000000000000007EAB
:105780007E007E7E001818001818001818001818DF
:105790000018180018180018180018180018180019
:1057A0000C30000FF00003C00000000000000000FB
:1057B00000000000000000000000000000000000E9
:1057C000000000000000007F7F007F7F00180C00B9
:1057D0000C18000C18000C180006300006300003EE
:1057E000600003600003600001C00001C000008091
:1057F00000000000000000000000000000000000A9
:10580000000000000000000000000000000000FE9A
:105810003F80FE3F8030060030060030860019CC05
:105820000019CC001B6C001B6C001E7C000E3800A5
:105830000E38000C18000C180000000000000000DA
:105840000000000000000000000000000000000058
:10585000000000000000007E7E007E7E0018180020
:105860000C300006600003C00001800001800003CE
:10587000C0000660000C30001818007E7E007E7E9E
:105880000000000000000000000000000000000018
:105890000000000000000000000000000000007C8C
:1058A0007E007C7E001818000C3000066000066048
:1058B0000003C00001800001800001800001800021
:1058C0000180000FF0000FF0000000000000000059
:1058D00000000000000000000000000000000000C8
:1058E000000000000000001FF8001FF8001818005A
:1058F00018300018600018C0000180000300000686
:1059000018000C18001818003018003FF8003FF875
:105910000000000000000000000000000000000087
:1059200000000000000000000000000001F0000185
:10593000F0000180000180000180000180000180F2
:1059400000018000018000018000018000018000D2
:1059500001800001800001800001800001F0000151
:10596000F00000000000000000000000000018002F
:10597000001800001C00000C00000E0000060000D3
:105980000600000300000300000180000180000009
:10599000C00000C000006000006000007000003027
:1059A000000038000018000018000000000000008F
:1059B0000000000000000000000000000F80000F49
:1059C00080000180000180000180000180000180D2
:1059D0000001800001800001800001800001800042
:1059E0000180000180000180000180000F80000F15
:1059F0008000000000000000000000000000000027
:105A00000000800001C00003E000077000063000C5
:105A10000C1800180C00100400000000000000002A
:105A20000000000000000000000000000000000076
:105A30000000000000000000000000000000000066
:105A40000000000000000000000000000000000056
:105A50000000000000000000000000000000000046
:105A60000000000000000000000000000000000036
:105A70000000000000000000000000000000000026
:105A80000000000000000000FFFF00FFFF0000001A
:105A90000003000003800000E00000600000000040
:105AA00000000000000000000000000000000000F6
:105AB00000000000000000000000000000000000E6
:105AC00000000000000000000000000000000000D6
:105AD00000000000000000000000000000000000C6
